:020000040800F2
:10000000C0D9002055020008654200086742000878
:10001000794200087B4200087D4200080000000091
:100020000000000000000000000000009D0100082A
:100030007F42000800000000F1010008BD5A0008DE
:100040006F0200086F0200086F0200086F020008CC
:100050006F0200086F0200086F0200086F020008BC
:100060006F0200086F0200086F0200086F020008AC
:100070006F0200088B4200086F0200086F02000840
:100080006F0200086F0200086F0200086F0200088C
:100090006F0200086F0200086F0200086F0200087C
:1000A0006F0200086F0200086F0200086F0200086C
:1000B0006F020008954200086F0200086F020008F6
:1000C0006F0200086F0200086F0200086F0200084C
:1000D0006F020008814200086F0200088542000894
:1000E0006F0200086F0200086F0200086F0200082C
:1000F0006F0200086F0200086F0200086F0200081C
:100100006F0200086F0200086F0200086F0200080B
:10011000894200086F0200086F0200086F020008A1
:100120006F020008914200086F0200086F02000889
:100130006F0200086F0200086F0200086F020008DB
:100140006F0200086F0200086F0200086F020008CB
:100150006F0200086F0200086F0200088F4200085B
:100160006F0200086F0200086F0200086F020008AB
:100170006F0200086F0200086F0200086F0200089B
:100180006F0200086F020008DFF80CD006F0D2F80A
:100190000048004715420008C0D900202A4B1968C2
:1001A0000868B0E8F04F80F30988BFF36F8F4FF015
:1001B000000080F3118870470000000006480068C6
:1001C000006880F3088862B661B6BFF34F8FBFF353
:1001D0006F8F00DF00BF00BF08ED00E0DFF80C000C
:1001E000016841F470010160704700BF88ED00E0D4
:1001F000EFF30980BFF36F8F134B1A681EF0100FD7
:1002000008BF20ED108A20E9F04F106008B44FF0CD
:10021000500080F31188BFF34F8FBFF36F8F02F050
:10022000A1FE4FF0000080F3118808BC196808682F
:10023000B0E8F04F1EF0100F08BFB0EC108A80F34A
:100240000988BFF36F8F704710000020EFF305801F
:10025000704700000648804706480047FEE7FEE773
:10026000FEE7FEE7FEE7FEE7FEE7FEE7FEE7FEE766
:100270004B430008890100082849084328490860C1
:10028000704730B50F23C27801780125FAB1244AAE
:10029000126801F1E02102F4E062C2F5E062C2F30B
:1002A0000722C2F10404D3404278A24084781C4063
:1002B0001443220181F80024007800F01F018D40D2
:1002C0004009800000F1E020C0F8005130BD01F08D
:1002D0001F0085404809800000F1E020C0F88051EF
:1002E00030BD104A114001430D48001F01607047A6
:1002F0000B4A121D0029116801D0014300E081431F
:10030000116070474FF0E0210428086903D020F005
:1003100004000861704740F00400FAE70000FA05A5
:100320000CED00E080FFFF1F10B501210C022046FC
:1003300000F06DFE2046BDE81040002100F067BED1
:1003400030B54268C84B0C791A400B6842EA042267
:10035000134343608268C54B4D791A40D1E903438A
:1003600023438C6844EA4504234313438360C26AF1
:10037000097D22F47002491EC9B242EA0151C162EC
:1003800030BD00210160017141718160C160016176
:10039000012101757047B64B10B5D3F80423B54958
:1003A0000A40D0E900142143D0E90240044321432C
:1003B0001143C3F8041310BD002101604160816046
:1003C000C16070470029816802D041F0010101E05D
:1003D00021F00101816070474268A74B1A400A432F
:1003E00042607047416282627047426822F01F0299
:1003F0000A43426070479E490028D1F8040302D0A6
:1004000040F4000001E020F40000C1F8040370474C
:1004100097490028D1F8040302D040F4800001E09D
:1004200020F48000C1F80403704770B5072609293D
:100430000AD9C568A1F10A0404EB4404A640B543F7
:10044000A3401D43C56007E0056901EB4104A640D8
:10045000B543A3401D4305611F23072A09D2446BFE
:10046000521E02EB820293409C4391400C43446332
:1004700070BD0D2A09D2046BD21F02EB8202934099
:100480009C4391400C43046370BDC46A0D3A02EB77
:10049000820293409C4391400C43C46270BD8168CA
:1004A00041F0804181607047014600208968490021
:1004B00000D5012070470029816802D041F4806195
:1004C00001E021F48061816070470029816802D0D9
:1004D00041F0020101E021F00201816070474268B1
:1004E000491E22F4604242EA4131416070470029CE
:1004F000416802D041F4006101E021F400614160F3
:100500007047C06C80B270475948D0F808037047F4
:100510000029816802D041F4807101E021F48071EA
:10052000816070470029816802D041F4007101E0C8
:1005300021F40071816070474D490028D1F804030F
:1005400002D040F4005001E020F40050C1F8040350
:10055000704770B5072609290AD9C568A1F10A04B0
:1005600004EB4404A640B543A3401D43C56007E027
:10057000056901EB4104A640B543A3401D43056155
:10058000836BC3F30154121B921C02EB82021F24E3
:100590009440A34391400B43836370BD826B491E1B
:1005A00022F4401242EA01518163704708B50844C1
:1005B0000090026008BD826822F470220A438260C3
:1005C0007047826822F440120A4382607047816853
:1005D00041F480018160704701460020896849022A
:1005E00000D5012070470029416802D041F48061A4
:1005F00001E021F48061416070470029416802D028
:1006000041F4805101E021F480514160704708B508
:10061000084428300090006880B208BD01238B4058
:1006200041680AB1194300E09943416070470246AE
:10063000002012680A4200D001207047C9430160BF
:10064000704730B50246002053680C0A01258D40E2
:1006500011682B40214202D0002B00D0012030BD78
:100660006FEA112101607047FFFEFFFCFDF7FFC03C
:1006700000200140E030FCFFFFFD3FFF2DE9F0438B
:10068000016821F001010160002101604160816089
:10069000C160016121214161B849B84A3D25103945
:1006A000904202D18D60BDE8F083B44A4FF4746685
:1006B0001832904201D18E60F5E7B04A4FF47417BA
:1006C0003032904201D18F60EDE7AC4A4FF0746C4C
:1006D0004832904202D1C1F808C0E4E7A74BA84ACB
:1006E0006033984201D1CA60DDE7A44CA54B783451
:1006F000A04201D1CB60D6E7DFF88082A24C08F19E
:100700009008404501D1CC60CDE7DFF870824FF012
:100710003D5908F1A808404502D1C1F80C90C2E744
:100720009A49DFF868820839404501D10D60BAE77F
:10073000964D1835A84201D10E60B4E7934D30357F
:10074000A84201D10F60AEE7904D4835A84202D1D2
:10075000C1F800C0A7E78D4D8C496035091FA8423C
:1007600001D10A609FE7894A7832904201D10B603B
:1007700099E7864A9032904201D10C6093E7834A10
:10078000A83290428FD1C1F800908CE730B5036851
:100790007F4ACC6813400A682243D1E905452C43BF
:1007A0002243CC6922430C6A22434C6A22438C6A5E
:1007B00022434C6B22438C6B22431A4302604269F2
:1007C00022F00703D1E90B2422431A4342610A694C
:1007D00042604A6882608968C16030BD0021016062
:1007E00041608160C160016141618161C1610162FB
:1007F00041628162C1620163416381637047002984
:10080000016802D041F0010101E021F00101016025
:1008100070470029016802D041F4004101E021F451
:100820000041016070470029016802D041F02001B9
:1008300001E021F02001016070474160704740688D
:1008400080B27047002A026802D042F4002201E020
:1008500022F400220260016170470029016802D081
:1008600041F4802101E021F48021016070470AB148
:1008700001617047C16070470146002009680903A3
:1008800000D501207047014600200968C90700D043
:1008900001207047406900F03800704702463B4B2A
:1008A00000209A4202D2354A103A01E0374A103A03
:1008B0008B0001D5526800E01268364B1A400A429C
:1008C00000D001207047314A904202D22B481038A4
:1008D00001E02E4810382F4A8B0001EA020101D5B1
:1008E000C1607047816070470B0607D5436912B13C
:1008F00043F0800301E023F080034361802908D0A6
:10090000002A026801F01E0101D00A4300E08A4378
:100910000260704730B51D4A0024904202D2174A47
:10092000103A01E0194A103A1B4B194205D01E2318
:1009300003EAD12503682B4002E0406900F0800300
:10094000880001D5506800E01068124A1040084243
:1009500001D003B10124204630BD0C4A904202D29E
:100960000648103801E0094810380A4A8B0001EAAD
:10097000020101D5C160704781607047106002407C
:100980003D000020400F002000003D201064024088
:100990003F801CF07D0F7D0F3C0F3C0F3549002040
:1009A0000860091D0860091D0860091D08603149BB
:1009B000314814310860704730B52E4A8379016898
:1009C00053B313688B431360111D0B680468A34372
:1009D0000B60017911440B68046823430B60254BBD
:1009E000083319680468A14319601C1D2168056853
:1009F000A94321604179102905D011440A68006893
:100A000002430A6030BD1968026811431960216809
:100A100000680143216030BD0079104402688A43B8
:100A2000026030BD0021016001710C2242718171B0
:100A30007047104910310A6802430A607047014646
:100A40000C4A0020143212680A4200D0012070477C
:100A500008491431086070470146064A00201432E4
:100A600012680A4200D00120704702491431086020
:100A700070470000003C0140FFFF7F00774910B540
:100A8000884206D10121084600F099FA0021012090
:100A90005BE07349884206D10121022000F08FFA01
:100AA0000021022051E06F49884206D10121042033
:100AB00000F085FA0021042047E06B49884206D106
:100AC0000121082000F07BFA002108203DE0674961
:100AD000884206D10121102000F071FA0021102077
:100AE00033E06349884206D10121202000F067FAF3
:100AF0000021202029E05F49884206D101214020C1
:100B000000F05DFA002140201FE05B49884206D1D9
:100B10000121802000F053FA0021802015E0574980
:100B2000884202D1012184150AE05549884202D148
:100B30000121441504E0534988420AD101210415DA
:100B4000204600F03CFA00212046BDE8104000F0AD
:100B500036BA10BDF0B5002201274FF0030C0B6828
:100B600007FA02F52B40AB422CD1066853000CFA71
:100B700003F4A64306600E79D0F800E09E4046EAF2
:100B80000E0606600E79012E01D0022E12D1866863
:100B9000A64386604E79D0F808E09E4046EA0E06ED
:100BA00086604668AE43466045688E799640B6B228
:100BB00035434560C568A543C560CC799C40C36892
:100BC0001C43C460521C102AC9D3F0BD4FF6FF71FC
:100BD00001600021017141718171C171704708B5D7
:100BE00041F480320092C261C1610099C161C16962
:100BF000C069009008BD0246002012690A4200D078
:100C000001207047006980B2704702460020526997
:100C10000A4200D001207047406980B270470183CA
:100C20007047418370470AB1018370474183704721
:100C30004161704742694A40426170474B07DB0E91
:100C40009A40C90810B500EB8100016A0F249C404E
:100C5000A1430162016A1143016210BD000002401C
:100C60000004024000080240000C02400010024054
:100C70000014024000180240001C02400020024004
:100C80000024024000280240F848016841F00101B8
:100C90000160F64A0021083211600268F44B1A40E4
:100CA0000260031DF34A1A60F04BF34A84331A6062
:100CB000F04A103A1B1D1A60026822F4802202607A
:100CC000EA480C300160181D01607047E7490022B6
:100CD000891C0A70087070470246002051090129DA
:100CE0000CD002290CD0E1497431096802F01F02CE
:100CF000012393400B4200D001207047DB49F4E709
:100D0000DA497031F1E718B500204FF4A0440090A3
:100D10003120FFF7E1FF0099491C0091A14201D069
:100D20000028F5D03120FFF7D7FF002800D00120A0
:100D300018BDCE4A116821F0F80141EAC0001060E8
:100D40007047CE4908607047C849002270310A7068
:100D50000A70012802D0042801D1052008707047CC
:100D6000C7490860704741EA82115A0810B5C54B5F
:100D7000029C03EB02421143014341EA0460BB4978
:100D8000091D086010BDBD4908667047800140EA32
:100D90000170B649843108607047B8498866704769
:100DA000800140EA0160B14940EA02708831086080
:100DB0007047B24908677047B049C8647047AB4B89
:100DC00008331A68084322F0EC6210431860704739
:100DD000A64B08331A68084322F078421043186083
:100DE0007047A24A0832116821F0030101431160E3
:100DF00070479E480830006800F00C0070479B4A1E
:100E00000832116821F0F001014311607047974AE0
:100E10000832116821F4E051014311607047934A90
:100E20000832116821F4604141EAC0001060704747
:100E300070B58E4B08331968934C11F00C0104D037
:100E40006610042903D0082903D004601BE0066063
:100E500019E0864A121D1168C1F38055116801F02E
:100E60003F0115B1B6FBF1F101E0B4FBF1F11468FB
:100E70001268C4F388146143C2F30142521C520049
:100E8000B1FBF2F1016019680F2202EA11117F4AE9
:100E9000545C0168E14041601C68072505EA942420
:100EA000145D21FA04F484601B6805EA5333D25CB4
:100EB000D140C16070BDC0F30121032908D16B4B43
:100EC00008331968724A21F4F81102400A431A6083
:100ED000664970310A68C0F30B0002430A6070472C
:100EE0006749443908607047654940390860704770
:100EF0006249C1F85C0170475C4A8C321168401E3F
:100F000021F01F01014311607047584A8C3211686B
:100F10006FF0FF0321F4F85103EB00200843106049
:100F20007047524A8C32116821F44011014311601C
:100F300070474E4A8C32116821F440010143116020
:100F400070474A4A8C32116821F4403101431160E4
:100F500070475049C1F8E0017047444A30320029D7
:100F6000116801D0014300E08143116070473F4A9E
:100F700034320029116801D0014300E0814311603F
:100F800070473A4A38320029116801D0014300E025
:100F9000814311607047354A40320029116801D001
:100FA000014300E0814311607047304A4432002918
:100FB000116801D0014300E08143116070472B4A62
:100FC00010320029116801D0014300E08143116013
:100FD0007047264A14320029116801D0014300E00D
:100FE000814311607047214A18320029116801D0ED
:100FF000014300E08143116070471C4A2032002900
:10100000116801D0014300E0814311607047174A25
:1010100024320029116801D0014300E081431160AE
:101020007047124A50320029116801D0014300E094
:101030008143116070470D4A54320029116801D074
:10104000014300E0814311607047084A583200298B
:10105000116801D0014300E0814311607047034AE9
:1010600060320029116817D0014316E000380240B1
:10107000FFFFF6EA10300024003000200000474255
:10108000800E47420000FFFF0024F4000000002013
:10109000FFFCFF0F00104742814311607047194A5F
:1010A0000029116801D0014300E0814311607047BD
:1010B00014490C310128086803D020F008000860AA
:1010C000704740F00800FAE70E4A573A00291178B5
:1010D00001D0014300E0814311707047094810308E
:1010E000016841F08071016070470146054A0020A7
:1010F000583A12680A4200D0012070470149563917
:101100000870704764380240FE4910B5884206D125
:1011100001210846FFF77BFF002101205BE0B0F1D1
:10112000804F09D0F84988420DD101210220FFF7F4
:1011300064FF0021022070E001210846FFF75DFFF7
:101140000021012069E0F149884206D101210420F3
:10115000FFF753FF002104205FE0ED49884206D1EC
:1011600001210820FFF749FF0021082055E0E94947
:10117000884206D101211020FFF73FFF00211020F7
:101180004BE0E549884206D101212020FFF735FFD9
:101190000021202041E0E149884206D101210220BE
:1011A000FFF735FF0021022015E0DD49884202D11A
:1011B00001210C040AE0DB49884202D101214C04E0
:1011C00004E0D94988420AD101218C042046FFF766
:1011D0001EFF00212046BDE81040FFF718BFD3498D
:1011E000884206D101214020FFF707FF002140205F
:1011F00013E0CF49884206D101218020FFF7FDFE90
:101200000021802009E0CB4988420AD184150121C0
:101210002046FFF7F2FE00212046BDE81040FFF710
:10122000ECBE10BD30B50288B64CBC4DA0420DD00E
:10123000A8420BD0B0F1804F08D0B34B984205D0F4
:10124000B24B984202D0B24B984203D122F07003C5
:101250004A881A43AF4B984206D0AF4B984203D00E
:1012600022F440730A891A4302804A68C2620A88DB
:101270000285A04201D0A84201D1897A01860121CC
:10128000818230BD4FF0FF3141600021018001813A
:10129000418081727047018582827047028822F006
:1012A00070020A430280704741627047C162704712
:1012B000406A7047008D70470029018802D041F0D4
:1012C000020101E021F0020101807047002901883C
:1012D00002D041F0040101E021F0040101807047D7
:1012E0000029018802D041F0800101E021F0800155
:1012F00001807047028822F00802028002880A43B7
:1013000002807047028822F44072028002880A43F9
:10131000028070470029018802D041F0010101E0FC
:1013200021F001010180704730B5028C22F00102EA
:101330000284028C8388048B22F0020224F073055D
:101340000C882C438D8915434A882A436D4DA84249
:1013500002D0724DA8420DD122F00805CA8923F4AB
:1013600040732A4322F004058A882A430D8A1D43CC
:101370004B8A2B438380048389684163028430BD98
:1013800070B5028C22F010020284028C8388048BD8
:101390000D8824F4E6464FF6FF7404EA052535432C
:1013A0008E8922F0200204EA061616434A8804EACF
:1013B00002123243534EB04202D0584EB04215D1C1
:1013C00022F08006CA8923F4406304EA0212324301
:1013D00022F040068A8804EA021232430E8A04EAA6
:1013E00086061E434B8A04EA8303334383800583C6
:1013F00089688163028470BD70B5028C22F48072AA
:101400000284028C8388848B0D8824F07304254326
:101410008E894FF6FF7422F4007204EA0626164302
:101420004A8804EA02223243364EB04202D03B4E92
:10143000B04215D122F40066CA8923F4405304EA6D
:101440000222324322F480668A8804EA022232436E
:101450000E8A04EA06161E434B8A04EA031333433A
:10146000838085838968C163028470BD70B5028CF6
:1014700022F480520284058C8288838B0C8823F4AA
:10148000E6464FF6FF7303EA0424344325F400567E
:101490008D8903EA053535434E8803EA06362E4327
:1014A000184DA84202D01D4DA84205D122F4804516
:1014B0000A8A03EA82122A4382808483896801644B
:1014C000068470BD0021018041808180816081811E
:1014D000C18101824182704730B50124058C00F141
:1014E00018038C40A543058431B308292CD0091F6B
:1014F000C1F34E001844016848F6FF7319400160BB
:1015000001681AE0000001400004004000080040AB
:10151000000C004000100040001400400004014096
:1015200000400140004401400048014000180040D4
:10153000001C00400020004006E04FF6FF7303EA65
:1015400002221143016030BD03EB510001684FF6E8
:101550008F73194001600168F3E74163704781634D
:101560007047C163704701647047028B22F07002BC
:101570000A4302837047028B4FF6FF7322F4E04266
:1015800003EA0121114301837047828B22F070022C
:101590000A4382837047828B4FF6FF7322F4E04246
:1015A00003EA0121114381837047028B22F0080274
:1015B0000A4302837047028B4FF6FF7322F40062E6
:1015C00003EA0121114301837047828B22F0080254
:1015D0000A4382837047828B4FF6FF7322F40062C6
:1015E00003EA0121114381837047028B22F0040238
:1015F0000A4302837047028B4FF6FF7322F4806226
:1016000003EA0121114301837047828B22F0040217
:101610000A4382837047828B4FF6FF7322F4806205
:1016200003EA0121114381837047028B22F080027B
:101630000A4302837047028B4FF6FF73C2F30E0218
:1016400003EA0121114301837047828B22F080025B
:101650000A4382837047828B4FF6FF73C2F30E02F8
:1016600003EA0121114381837047028C22F00202B8
:101670000A4302847047028C22F008020A43028463
:101680007047028C4FF6FF7322F0200203EA01112B
:10169000114301847047028C4FF6FF7322F08002E1
:1016A00003EA0111114301847047028C4FF6FF7366
:1016B00022F4007203EA0121114301847047028C75
:1016C0004FF6FF7322F4006203EA01211143018403
:1016D0007047028C4FF6FF7322F4005203EA013187
:1016E00011430184704710B50123048C8B409C4347
:1016F0000484038C8A401343038410BD10B5042373
:10170000048C8B409C430484038C8A4013430384E1
:1017100010BD828B22F440628283828B4FF6FF736E
:1017200003EA01210A4382837047828B22F00C0274
:101730008283828B0A4382837047028B22F4406249
:101740000283028B4FF6FF7303EA01210A430283EF
:101750007047F0B5048C24F010040484078B068CC9
:101760004FF6FF7404EA011527F4734704EA0331C6
:10177000394304EA02220A4326F0A001294341F03A
:10178000100102830184F0BD028B22F00C0202835F
:10179000028B0A43028370472DE9F0410C460E8804
:1017A0004988A288238905460EB3042E26D0082E28
:1017B0002E8C4FF6FF7028D026F480562E84AF8BE7
:1017C0002E8C00EA022200EA013127F473473A43E3
:1017D00000EA0330104326F420420A4342F48051C9
:1017E000A8832984E1882846BDE8F04191E700F00C
:1017F00062F9E1882846BDE8F041C5E7FFF7A9FF97
:10180000E1882846BDE8F04197E726F480762E84EB
:10181000AF8B2E8C00EA012100EA0310104327F061
:10182000F307384326F420620A4342F48071A88308
:101830002984E1882846BDE8F04176E7002101804F
:10184000418001228280C180018170472DE9F041F1
:101850000C46002649880746012501B90226A288C0
:10186000012A00D10225208823890028384610D07B
:10187000FFF76FFFE1883846FFF75FFF23892A46AD
:101880003146384600F017F9E1883846BDE8F041A6
:101890007AE700F010F9E1883846FFF775FF2389F1
:1018A0002A4631463846FFF754FFE1883846BDE8FE
:1018B000F04142E7406B7047806B7047C06B7047E8
:1018C000006C704710B50A884B88CC881A438B8807
:1018D00023431A430B891A434B8989891A430A43C4
:1018E000A0F8442010BD0021018041808180C1808A
:1018F0000181418181817047002930F8441F02D065
:1019000041F4004101E0C1F30E010180704700295C
:10191000818802D041F0040101E021F004018180BE
:1019200070470029818802D041F0010101E021F0D7
:10193000010181807047002A828901D00A4300E0BA
:101940008A43828170478182704702460020128A52
:101950000A4200D001207047C94301827047024605
:101960000020138A92890B4202EA010202D0002A67
:1019700000D001207047C943018270471143A0F88D
:1019800048107047002A828901D00A4300E08A4348
:10199000828170470029818802D041F0080101E06E
:1019A00021F0080181807047018921F00701018140
:1019B0007047028922F070020A430281704700B525
:1019C0000346FFF7F6FF188940F00700188100BDB5
:1019D00070B516460D46602904464FF001023146A7
:1019E0000AD000F068F829462046FFF7E2FF208978
:1019F00040F00700208170BDFFF7ABFEF3E730B584
:101A000004894FF6FF7505EA03231343E4B20B4341
:101A10002343038130BD10B50446FFF7F0FF208952
:101A200040F07700208110BD10B50446FFF7E7FFB6
:101A3000208940F48040208110BD828822F070020D
:101A4000828082880A4382807047028922F00702DE
:101A5000028102890A4302817047028922F08002D2
:101A6000028102890A430281704770B50589048B9F
:101A7000068C25F007050D434FF6FC410C4040F263
:101A800001110C434FF6FF7101EA031126F0220603
:101A90001143314305810483018470BD002981888D
:101AA00002D041F0800101E021F080018180704787
:101AB000A0F85010704770B5048C24F00104048421
:101AC000058B048C4FF6FF7606EA0313134325F0CB
:101AD000F3052B4324F00A020A4342F00101038379
:101AE000018470BDCD4910B5884206D10121102076
:101AF000FFF78DFA0021102020E0C949884202D169
:101B000001214C0429E0C749884202D101218C04FB
:101B100023E0C549884202D10121CC041DE0C3491C
:101B2000884202D101210C0517E0C149884209D140
:101B300001212020FFF76BFA00212020BDE8104092
:101B4000FFF765BABB49884202D101218C0704E046
:101B5000B94988420AD1012144052046FFF74DFAD0
:101B60002046BDE810400021FFF747BA10BD7FB501
:101B70000446008A0D46C98820F440500143218262
:101B8000A08941F20C618843A9882A8911436A8996
:101B900002431143A181A08A20F44071A88908431F
:101BA000A0826846FFF744F99C48844202D0A048CE
:101BB000844201D1039800E00298A189090400EB56
:101BC000C00101EB0010296801D5490000E089003F
:101BD000B0FBF1F06422B0FBF2F109010B096FF0E8
:101BE00018056B4300EB8300A3891D044FF03203FB
:101BF00006D503EBC000B0FBF2F000F0070005E0F3
:101C000003EB0010B0FBF2F000F00F00084320815E
:101C10007FBD4FF41651016000218180C180018198
:101C20000C2242818181704710B5028A4C8822F4CF
:101C300070630A8822438C88C9880C4322431A4364
:101C4000028210BD0021018041808180C1807047E7
:101C50000029818902D041F4005101E021F40051B2
:101C600081817047028B02F47F420283028B0A4318
:101C7000028370470029818902D041F4004101E0CC
:101C8000C1F30E01818170470029818A02D041F49D
:101C9000006101E021F4006181827047C1F3080115
:101CA000818070478088C0F308007047028A22F064
:101CB0000F020282028A0A43028270470029818948
:101CC00002D041F0020101E021F002018181704760
:101CD000828922F40062828182890A43828170476C
:101CE000028A22F020020282028A0A43028270479C
:101CF0000029018A02D041F4804101E021F48041B1
:101D000001827047818941F001018181704700297A
:101D1000818A02D041F0080101E021F008018182AE
:101D20007047028BD2B20283028B42EA0121018307
:101D300070470029818A02D041F0200101E021F0A2
:101D40002001818270470029818A02D041F0100170
:101D500001E021F0100181827047828A22F00402A2
:101D60008282828A0A43828270470029818A02D055
:101D700041F0020101E021F0020181827047002A56
:101D8000828A01D00A4300E08A438282704710B5FC
:101D9000C1F3421301F01F040121A140012B07D020
:101DA000022B07D01430002A026805D00A4304E051
:101DB0000C30F8E71030F6E78A43026010BD0246A7
:101DC000002012880A4200D001207047C9430180D8
:101DD000704770B501F01F0501260024C1F34213BE
:101DE00006FA05F2012B0FD0022B0FD0838A4FEA9F
:101DF00011210088134206FA01F600EA060001D01C
:101E000000B10124204670BD8389F0E7038AEEE724
:101E10000A0A01219140C943018070470010014026
:101E20000044004000480040004C0040005000408A
:101E30000014014000780040007C004000F10801DF
:101E40004FF0FF32C0E90112C16001610021016061
:101E5000704700210161704742684A6093688B6057
:101E600093685960916008610168491C016070477E
:101E700030B50C68621C02D000F1080202E0026971
:101E800004E01A4653681D68A542FAD953684B60AE
:101E900099608A60516008610168491C016030BD29
:101EA000D0E9013201699A60D0E901235A604A6899
:101EB000824201D182684A60002202610868401EA5
:101EC0000860704770B50D46040005D140F21B1242
:101ED000F2A1FAA004F0F0FB03F0F2FED4E90F2027
:101EE000216802FB001161600021A1632168A160EB
:101EF0000A46D4E90F01401E00FB0121E1602146A2
:101F00004FF0FF3001F8440F487004F110004DB15C
:101F1000FFF794FF04F12400FFF790FF03F0EAFEBF
:101F2000012070BD21690029F8D001F0AFFA002826
:101F3000F4D0E6494FF080500860BFF34F8FBFF3F5
:101F40006F8FEBE72DE9F04117460E46050005D1EE
:101F50004FF4C472D1A1D9A004F0AEFBBEB105FB11
:101F600006F0543003F066FF04000ED004F1540074
:101F70007EB12060C4E90F5620460121FFF7A2FF81
:101F800084F8507000212046A164BDE8F081002053
:101F9000E7E72460EEE72DE9F041856B174604463C
:101FA0000026026C82B1C7B1E06804F02FF8E16846
:101FB000206C091AE1602268914202D26168081A15
:101FC000E060022F16D017E02068A8B9606801F021
:101FD0006EFB0646002060600EE0A06804F016F874
:101FE000216CA0680844A0606168884204D320681E
:101FF000A06001E005B16D1E6D1CA5633046C4E70D
:102000002DE9F3410F4600980026846C2CB940F668
:10201000CE12A2A1A9A004F04FFBA06BE16B8842F5
:1020200005D340F6CF129DA1A4A004F045FBA06B00
:10203000E16B88420CD294F945503A4669462046F5
:10204000FFF7A9FF0646681C05D06D1C84F84550B3
:102050003046BDE8FC81606A0028F9D004F1240014
:1020600001F014FA0028F3D00126F1E72DE9F04140
:10207000044603F025FE94F9455004F1240610E0CF
:10208000A06C20B100212046FFF7BAFF04E0606A8F
:1020900048B1304601F0FAF908B101F0B0FA6D1E0E
:1020A0006DB2002DECDC4FF0FF3684F8456003F094
:1020B00021FE03F005FE94F9445004F1100709E0F5
:1020C000206948B1384601F0E1F908B101F097FA0A
:1020D0006D1E6DB2002DF3DC84F84460BDE8F04164
:1020E00003F008BE2DE9FF4F83B099468B460400EC
:1020F0004FF0000605D140F2D92268A16FA004F08C
:10210000DBFABBF1000F07D1206C28B140F2DA22D4
:1021100062A16AA004F0D0FAB9F1020F08D1E06B15
:10212000012805D040F2DB225CA164A004F0C4FACF
:1021300001F074FA38B9059828B140F2DE2257A1AF
:102140005EA004F0B9FA4FF0000A4FF08057DFF8B4
:102150007C8103F0B5FDA06BE16B884206D3B9F139
:10216000020F03D0059800B316B325E04A4659463E
:102170002046FFF710FFA16C21B149462046FFF72A
:102180003FFF05E0616A19B104F1240001F07EF916
:1021900028B1C8F80070BFF34F8FBFF36F8F03F003
:1021A000A9FD012007B0BDE8F08F03F0A3FD21E0F9
:1021B000684601F0DAF9012603F09CFD00F0A1FD6C
:1021C00003F07EFD94F94400401C01D184F844A042
:1021D00094F94500401C01D184F845A003F08AFD24
:1021E00005A9684601F0D2F930B12046FFF73EFF5D
:1021F00000F0F9FC0020D5E703F062FDA06BE16B75
:10220000884201D1012500E0002503F073FD95B15E
:1022100004F11000059901F0E0F82046FFF726FFD1
:1022200000F0E1FC002894D1C8F80070BFF34F8F94
:10223000BFF36F8F8DE72046FFF718FF00F0D3FC48
:1022400087E710B5024600210120FFF77BFE041E40
:1022500007D00021416001600B460A46C160FFF7CC
:1022600041FF204610BD10B5040005D140F24122C7
:102270000AA112A004F020FA01F0CDF961688842A9
:1022800026D1E068401EE06005D100231A461946B9
:102290002046FFF727FF012010BD00002E2E5C4DC9
:1022A0006964646C6577617265735C4672656552DA
:1022B000544F535C71756575652E63004572726F7E
:1022C000723A25732C25640D0A00000004ED00E02D
:1022D0000020E1E730B4026C0B46002A0BD0C16845
:1022E0001144C1604468A14201D30168C16030BC9F
:1022F000184603F08BBE30BC70472DE9FF4F83B00A
:102300009B468A4604004FF0000607D140F2DC42AB
:10231000AFF27801AFF25C0004F0CEF9BAF1000F31
:1023200009D1206C38B140F2DD42AFF29001AFF23A
:10233000740004F0C1F901F071F948B9059838B199
:102340004FF49C62AFF2AC01AFF2900004F0B4F92C
:102350004FF000094FF08057DFF8188603F0B0FC0B
:10236000A56B35B351462046E668FFF7B3FFBBF1D6
:10237000000F11D0E660606A50B104F1240001F052
:1023800085F828B1C8F80070BFF34F8FBFF36F8F87
:1023900003F0B0FC012005E76D1EA563206810B9AD
:1023A00001F035FA606020690028F1D004F11000D6
:1023B000E5E7059808B11EB106E003F09BFC27E0B5
:1023C000684601F0D2F8012603F094FC00F099FC75
:1023D00003F076FC94F94400401C01D184F8449049
:1023E00094F94500401C01D184F8459003F082FC2B
:1023F00005A9684601F0CAF8002820460AD0FFF770
:1024000035FE00F0F0FB204600F0A6FA0028A5D02B
:102410000020C7E600F0A0FAD8B1206830B903F078
:102420004FFC606801F005F903F064FC04F124003E
:10243000059900F0D2FF2046FFF718FE00F0D3FB0D
:1024400000288BD1C8F80070BFF34F8FBFF36F8F98
:1024500084E72046FFF70AFE00F0C5FB7EE770B573
:102460000D46040007D14FF41E72AFF2D011AFF247
:10247000B41004F021F901F0CEF86168884204D16B
:10248000E068401CE060012070BD00232A46194628
:102490002046FFF732FF0028F6D0E168491CE160D2
:1024A00070BD70B50C46050007D140F2BD22AFF2F9
:1024B0001421AFF2F81004F0FFF8AC4207D940F253
:1024C000BE22AFF22821AFF20C2004F0F5F8022270
:1024D00000212846FFF736FD002800D0846370BD38
:1024E0002DE9F047984615468946040007D140F289
:1024F0009F32AFF25821AFF23C2004F0DDF8B9F181
:10250000000F09D1206C38B14FF46872AFF274211A
:10251000AFF2582004F0D0F8B8F1020F0AD1E06B06
:10252000012807D040F2A132AFF29021AFF274201F
:1025300004F0C2F803F003FC5020EFF3118780F39E
:102540001188BFF34F8FBFF36F8FA06BE16B884291
:1025500007D3B8F1020F04D0002087F31188BDE83B
:10256000F08794F94560424649462046FFF713FD3F
:10257000701C04D0761C84F845600120EDE7A06C47
:10258000012620B141462046FFF73AFD06E0606A89
:102590000028F2D004F1240000F078FF0028ECD0ED
:1025A000002DEAD02E60E8E72DE9F0410D46040049
:1025B00007D140F23C42AFF21C31AFF2003004F0E0
:1025C0007BF8206C38B14FF48862AFF23031AFF253
:1025D000143004F071F8206848B9606838B140F2EE
:1025E0004542AFF24831AFF22C3004F065F803F009
:1025F000A6FB5020EFF3118680F31188BFF34F8FB5
:10260000BFF36F8FA16BE06B88421FD994F945002F
:10261000491CA163411C04D0401C84F845000120E2
:1026200015E0A06C012720B100212046FFF7E8FC4F
:1026300006E0606A0028F2D004F1240000F026FFD2
:102640000028ECD0002DEAD02F60E8E7002086F3C8
:1026500011889AE42DE9F04790468946040007D195
:102660004FF4B462AFF2CC31AFF2B03004F024F8E2
:10267000B9F1000F09D1206C38B140F2A152AFF28C
:10268000E431AFF2C83004F017F803F058FB5020E3
:10269000EFF3118780F31188BFF34F8FBFF36F8F74
:1026A000A66BF6B194F9445049462046FFF712FE56
:1026B000761EA663681C04D06D1C84F8445001206B
:1026C00010E020690028FAD004F1100000F0DEFECE
:1026D0000028F4D0B8F1000FF1D00121C8F80010A3
:1026E000EDE7002087F3118839E72DE9F0410E4628
:1026F000040007D140F2FC52AFF26041AFF2444017
:1027000003F0DAFF4EB9206C48B140F2FD52AFF24F
:102710007441AFF2584003F0CFFF206C38B940F25B
:10272000FE52AFF28841AFF26C4003F0C5FF03F0F8
:1027300006FB5020EFF3118580F31188BFF34F8F14
:10274000BFF36F8FA06B30B131462046E768FFF7CB
:10275000C1FD0120E76085F3118816E410B504007F
:1027600007D140F22F62AFF2CC41AFF2B04003F09C
:10277000A3FF03F0A5FAA46B03F0BCFA20468BE597
:1027800010B5040007D140F24162AFF2F041AFF260
:10279000D44003F091FF03F093FAD4E90E10441AE9
:1027A00003F0A8FA204677E510B5040007D140F2FF
:1027B0005162AFF21851AFF2FC4003F07DFFA06B05
:1027C0006AE56D4A002102EBC1035B68834206D1D2
:1027D000002042F8310002EBC10148607047491CFB
:1027E0000829F0D3704710B5040007D140F25D62AC
:1027F000AFF25851AFF23C5003F05EFF2046FFF7B6
:10280000E0FF2046BDE8104003F07FBBC06C70477E
:10281000C164704790F85000704710B5040007D1AC
:1028200040F29372AFF28C51AFF2705003F044FF5C
:10283000A06B08B100202FE501202DE510B50400A4
:1028400007D140F2BA72AFF2AC51AFF2905003F040
:1028500033FFA06BE16B884201D101201CE5002011
:102860001AE510B5444B002253F832401CB1521CFB
:10287000082AF9D310E543F8321003EBC20148608F
:102880000AE510B500243C4A214602EBC1035B680F
:10289000834202D152F8314002E0491C0829F4D3A6
:1028A0002046F9E470B515460E46044603F008FAD2
:1028B00094F944100020491C01D184F8440094F993
:1028C0004510491C01D184F8450003F013FAA06BB0
:1028D00028B92A46314604F1240000F0BCFD204608
:1028E000BDE87040FFF7C2BB00220421FFF72ABBFE
:1028F00070B50D46044603F0E3F9A06C08B9A06B6F
:1029000008B1002401E0A564012403F0F3F9204696
:1029100070BD10B50446806C884201D1A06B08B12F
:102920000020B9E403F0CCF90020A06403F0E2F940
:102930000120B1E408B500230A4669460093FFF779
:10294000DCFC009808BD08B500210A4600916946E4
:10295000FFF780FE009808BD10B5044603F0B0F9FB
:10296000A06B20B1002403F0C5F9204694E40124B3
:10297000F9E7000004ED00E0F40000202DE9F0414B
:10298000054603F09DF9FE4EB068401CB06030680B
:10299000FC4F10B1706930B32BE03560B06801288E
:1029A00027D1002404EB840007EB8000FFF746FAF0
:1029B000641C202CF6D3F448FFF740FAF248143098
:1029C000FFF73CFAF0482830FFF738FAEE483C3081
:1029D000FFF734FAEC485030FFF730FAEA487063FA
:1029E0001430B06305E03068E96AC06A884200D8F4
:1029F0003560706A0121401C70626864E86A32695F
:102A000081401143316100EB800007EB8000291DFC
:102A1000FFF722FA03F06EF9706900280CD03068D5
:102A2000E96AC06A884207D2D8494FF080500860EE
:102A3000BFF34F8FBFF36F8FBDE8F0812DE9FF5FCC
:102A40008346DDE90E87994616468A46900003F0D4
:102A5000F1F905001AD05C2003F0ECF9040012D063
:102A600025630021CDE90241CDE900874B4632467E
:102A70005146584601F08DF82046FFF77FFF0120B0
:102A800004B0BDE8F09F284603F03FFA4FF0FF3056
:102A9000F6E770B5044603F013F9B94D04B92C6894
:102AA000201DFFF7FDF958B9E06AB64A00EB800136
:102AB00052F8211021B901218140286988432861F9
:102AC000A06A18B104F11800FFF7EAF9686A401C1F
:102AD00068622868844208D1AB48211D3C30FFF76A
:102AE000BBF96868401C686007E0A868401EA860E1
:102AF000204601F0A7F801F098F803F0FBF86869A8
:102B0000002812D0286884420FD1286B28B140F2E7
:102B100065429FA1A6A003F0CFFD9C494FF08050D5
:102B20000860BFF34F8FBFF36F8F70BD2DE9F04189
:102B3000934F0026386B38B1B869401CB861F8690A
:102B400000B10126304677E7FD686D1CFD6011D1AC
:102B5000786B006828B140F6D9128DA194A003F0DB
:102B6000ABFD786BB96B7963B863386A401C386227
:102B700001F05BF8B86ADFF80C82854209D3786B04
:102B8000006880B1786BC068C468606885420DD207
:102B9000B8623868C06A00EB800158F8210001284B
:102BA000CDD90126CBE74FF0FF30F1E7201DFFF72D
:102BB00077F9A06A18B104F11800FFF771F9E06A1B
:102BC00001213A6981401143396100EB800108EB32
:102BD0008100211DFFF740F9E06A3968C96A88421F
:102BE000CDD30126CBE72DE9F047654D00242746DC
:102BF000286B28B94FF4FD6265A16DA003F05CFD60
:102C000003F05EF8286B401E2863286BF0BBA868B1
:102C10005D4928310126C8B3DFF868918846D8F8A5
:102C20000010E9B1D8F80C00C46804F11800FFF7EF
:102C300037F9201DFFF734F9E06A2A6906FA00F136
:102C40001143296100EB800109EB8100211DFFF791
:102C500003F9E06A2968C96A8842E0D3EE61DEE7D9
:102C60000CB100F0E2FFAC693CB1FFF75FFF00B1CF
:102C7000EE61641EF9D10020A861E86930B14349D2
:102C8000012738070860BFF34F8F00E001E0BFF372
:102C90006F8F03F02FF83846BDE8F0872DE9F0413B
:102CA000374E0F460446F5683068001DFFF7F8F808
:102CB00038B9306890F82C10012088403169814380
:102CC0003161601C08D13FB13168BDE8F0412E4848
:102CD0005030091DFFF7C0B830682C44AC42446046
:102CE000316805D2B06BBDE8F041091DFFF7C0B8EF
:102CF000706B091DFFF7BCF8B06A844200D2B46261
:102D00009AE61F48016B491C016370472DE9F041A9
:102D10000E4605004FF0000405D140F279421CA197
:102D200023A003F0C9FC2EB940F27A4218A120A0DA
:102D300003F0C2FC124F386B28B140F27B4214A161
:102D40001BA003F0B9FCFFF7DCFFFA6828688119C3
:102D5000904202D9884202D804E0884201D89142C8
:102D600000D9012429601CB1881A0021FFF796FFC1
:102D7000FFF739FF002828D14FF0805003491FE0AA
:102D80001000002034010020B403002004ED00E016
:102D90002E2E5C4D6964646C6577617265735C4668
:102DA00072656552544F535C7461736B732E63008C
:102DB0004572726F723A25732C25640D0A0000006B
:102DC0000860BFF34F8FBFF36F8F35E610B5040077
:102DD00014D0FE49096B39B140F2CF42AFF2500135
:102DE000AFF2340003F068FCFFF78BFF00212046B0
:102DF000FFF754FFFFF7F7FE002807D1F4494FF023
:102E000080500860BFF34F8FBFF36F8F10BD70B558
:102E1000050007D140F2FB42AFF28C01AFF2700027
:102E200003F04AFCE94E3068854201D1002070BDB4
:102E300002F046FF6C6902F05DFF706B844202D0C5
:102E4000B06B844201D1022070BDE248844204D1BB
:102E5000A86A0028F7D1032070BDDE4814388442E8
:102E600002D00CB1012070BD042070BD10B5044625
:102E700002F026FF0CB9D5480468E46A02F03AFF74
:102E8000204610BD10B5044602F059FF5020EFF364
:102E9000118180F31188BFF34F8FBFF36F8F0CB98F
:102EA000CA480468E06A81F3118810BD2DE9F04139
:102EB00000260D460446202908D34FF4B062AFF235
:102EC0003011AFF2141003F0F7FB1F2502F0F8FEEB
:102ED000BE4F04B93C68E06CA8423FD039688542D7
:102EE00006D98C4207D03968C96AA94202D902E0E2
:102EF0008C4200D10126E16A8846884200D1E56211
:102F0000E564A069002802DBC5F12000A061B24D94
:102F100008EB8800616905EB8000814215D1201D16
:102F2000FEF7BEFF012120B93A6901FA08F0824399
:102F30003A61E06A3A6981401143396100EB8000EF
:102F400005EB8000211DFEF787FF3EB1A0494FF041
:102F500080500860BFF34F8FBFF36F8FBDE8F04123
:102F600002F0C8BE70B5994D286B10B10120E86120
:102F700070BD0020E8612869974EB0FA80F0C0F17A
:102F80001F0000EB800456F8240038B940F6F62202
:102F9000AFF20421AFF2E81003F08EFB06EB8400E1
:102FA00000F10802416849684160914201D14968D5
:102FB0004160C868286070BD70B5044602F080FEAC
:102FC000824D04B92C68201DFEF76AFF58B9E06AEB
:102FD000814A00EB800152F8211021B90121814082
:102FE000286988432861A06A18B104F11800FEF727
:102FF00057FF211D7748FEF72FFF02F07BFE68691F
:1030000028B102F05DFE00F010FE02F073FE2868A9
:10301000844213D1686990B1286B38B140F257628D
:10302000AFF29421AFF2782003F046FB68494FF0ED
:1030300080500860BFF34F8FBFF36F8F70BD65483E
:10304000A9680068884202D10020286070BDBDE8F0
:10305000704087E770B50025040007D140F2816217
:10306000AFF2D421AFF2B82003F026FB59496069D2
:10307000884205D1A06A2839884201D000B90125CB
:10308000284670BD70B504002BD0504D286884428E
:1030900031D002F015FE2046FFF7DCFFE8B1201D1D
:1030A000FEF7FEFEE06A01212A6981401143296191
:1030B000494900EB800001EB8000211DFEF7CCFEAA
:1030C000E06A2968C96A884207D341494FF08050B5
:1030D0000860BFF34F8FBFF36F8FBDE8704002F001
:1030E00009BE40F2AB62AFF25831AFF23C30BDE8FE
:1030F000704003F0E1BA70BD2DE9F04100260400F4
:1031000007D140F2E262AFF27831AFF25C3003F007
:10311000D3FA02F014FE5020EFF3118580F31188EA
:10312000BFF34F8FBFF36F8F2046FFF793FFF0B1D0
:10313000264F386B20B1274804F11801283814E0D5
:10314000E06A3968C96A884200D30126201DFEF76B
:10315000A7FEE06A01213A698140114339611E49A5
:1031600000EB800001EB8000211DFEF775FE85F36A
:103170001188304660E4184E4FF08054144D00F032
:103180006BFD30680128FAD92C60BFF34F8FBFF375
:103190006F8FF4E71CB50D4800242C30CDE90040BA
:1031A000234682220DA10F48FFF748FC012803D1D6
:1031B00000F074FE01281BD0401C2BD140F2847219
:1031C000AFF23441AFF2184002B00DE01000002021
:1031D00004ED00E0040400203401002049444C4583
:1031E0000000000077310008BDE8104003F064BA29
:1031F000502080F31188BFF34F8FBFF36F8FFA48D1
:103200004FF0FF31816201214161C460BDE81C4083
:1032100002F0E8BC1CBD502080F31188BFF34F8F33
:10322000BFF36F8FF0490020486102F03DBDEE48CA
:10323000C068704710B502F082FDEB48C06810BD51
:10324000E9488068704710B510B104461CB10AE027
:10325000E5480468FAE740F68C02AFF2CC41AFF2E1
:10326000B04003F029FA04F1340010BD2DE9F04715
:103270001E4691460C4607000ED0054605F1340067
:10328000C4E90050E86A2061286BE061686CA060C6
:10329000207B032803D00AE0D3480568EEE7FFF758
:1032A00030FDA86A08B102202073FFF79CFC4FF0A4
:1032B0000008E86CC4E90508052E01D0267303E078
:1032C0003846FFF7A4FD2073B9F1000F0AD00021A2
:1032D000286B01E0401C491C0278A52AFAD0880816
:1032E0002084D9E4A4F82080D6E42DE9F047814673
:1032F000086892460C460025F8B1486801F10806B6
:1033000040684860B04201D140684860D0F80C8005
:10331000606842686260B24201D151686160606871
:1033200005EBC50109EB8101C76853460122384608
:10333000FFF79CFF6D1C4745EAD12846ACE42DE918
:10334000F04717460A46064600242025FFF7D9FC19
:10335000DFF89482D8F8080082423AD3DFF88C92E2
:103360006D1E05EB850104EBC40009EB810106EB42
:1033700080000122FFF7B9FF0444002DF0D104EBD7
:10338000C40006EB800002224546D8F83410FFF74F
:10339000ACFF044404EBC40006EB80000222A96BDE
:1033A000FFF7A3FF044404EBC40006EB80000422F3
:1033B0008F49FFF79AFF04448D4904EBC40006EBE4
:1033C000800003221431FFF790FF04440FB1002066
:1033D0003860FFF708FC20465EE470B50D46040037
:1033E00007D140F60632AFF25861AFF23C6003F00D
:1033F00063F97D48016820461831FEF739FD2846FB
:10340000BDE87040012149E42DE9F04117460E4620
:10341000050007D140F61732AFF28C61AFF2706051
:1034200003F04AF9704C206B38B940F61B32AFF20A
:10343000A061AFF2846003F03FF9216846F00040DC
:103440008861216828461831FEF706FD3846BDE838
:10345000F041012122E470B514460E46050007D163
:1034600040F63132AFF2D861AFF2BC6003F024F91C
:103470005D48016828461831FEF7EEFC0CB14FF0AC
:10348000FF3621463046BDE8704007E42DE9F041A3
:10349000C068C4683CB940F66132AFF20C71AFF25B
:1034A000F06003F009F904F118000746FEF7F8FC94
:1034B0004D4D286B012660B14D4839461438FEF752
:1034C000CBFCE06A2968C96A884212D90120EE6102
:1034D00016E4201DFEF7E4FCE06A2A6906FA00F112
:1034E00011432961414900EB800001EB8000211D5F
:1034F000E5E7002004E470B53B4D06460C46286B1A
:1035000038B940F69932AFF27871AFF25C7003F0DF
:10351000D3F844F000403060F4683CB940F6A13282
:10352000AFF29471AFF2787003F0C6F83046FEF750
:10353000B7FC201DFEF7B4FCE06A01262A6906FAF2
:1035400000F111432961294900EB800001EB800063
:10355000211DFEF781FCE06A2968C96A884202D908
:103560000120EE6170BD002070BD10B5040007D1D0
:1035700040F6C132AFF2E871AFF2CC7003F09CF8C4
:103580001948016A2160C068606010BD70B50D46C1
:10359000040007D140F6CB32AFF60C01AFF2F07069
:1035A00003F08AF83DB940F6CC32AFF61C01AFF615
:1035B000000003F081F802F083FB0B4AD068296811
:1035C0004B1C0FD02368126A934202D06268824279
:1035D00010D96268801A88420CD2081A28602046E6
:1035E000FFF7C3FF002406E0100000203401002094
:1035F000F0030020012402F07DFB204670BDFF494E
:103600000120C8617047002800D0806C70470028F6
:1036100000D081647047F94800687047F7484169F5
:1036200019B1006B18B100207047012070470220CB
:10363000704770B5040039D0F04DE06A2968C96A56
:10364000884233D2A069002804DB2868C06AC0F130
:103650002000A061E06AEA4E00EB8000616906EBA1
:10366000800081421FD1201DFEF71AFC012150B9B4
:10367000E06A00EB800256F8222022B92A6901FA9A
:1036800000F082432A612868C06AE0622A698140AA
:103690001143296100EB800006EB8000211DBDE88D
:1036A0007040FEF7D9BB2868C06AE06270BD70B593
:1036B00004004FF0000640D0D04D2868844207D067
:1036C00040F6C762AFF63811AFF61C1002F0F4FFF7
:1036D000206D38B940F6C962AFF64C11AFF6301024
:1036E00002F0EAFF206D401E2065E26CE16A914223
:1036F00023D010BB201DFEF7D3FBC149012250B9D6
:10370000E06A00EB800351F8233023B92B6902FAF9
:1037100000F083432B61E06CE062C0F12000A06107
:10372000E06A2B6982401A432A6100EB800001EBBA
:103730008000211DFEF790FB0126304670BD2DE96B
:10374000FF41002705460770AC48816802918068F8
:1037500000EBC000800002F06DFB06004BD00022A1
:103760000299FFF7ECFDCDE9020738463AE000EB9D
:10377000C00006EB8001087B01280FD002280FD083
:1037800003280FD004280FD000244968284602F0EF
:1037900094FC284602F07CFC202109E05224F4E746
:1037A0004224F2E75324F0E74424EEE72954401C76
:1037B0000F28FBD32F540544039800EBC00006EB01
:1037C00080008268018CCDE90012036922468DA138
:1037D000284602F081FF284602F05AFC054403986F
:1037E000401C039002998842C1D304B03046BDE822
:1037F000F04102F08ABBBDE8FF81804908680A6891
:103800008069D26A0968C2F120028A6170477B49E7
:10381000086818B10868026D521C02650868704794
:1038200070B50C46064602F04BFA744D2868406DA0
:1038300080B92968012081F858005CB10121204637
:10384000FFF72CFA73494FF080500860BFF34F8F99
:10385000BFF36F8F02F04EFA02F032FA2868446D1F
:10386000002034B116B12968486502E02A68611E5B
:103870005165296881F8580002F03CFA204670BD75
:103880002DE9F0411E4615468846074602F018FA13
:103890005A4C206890F85800022814D02068416DD6
:1038A000B94341652168012081F858005EB10121CA
:1038B0003046FFF7F3F957494FF080500860BFF3E7
:1038C0004F8FBFF36F8F02F015FA02F0F9F915B1BF
:1038D0002068406D2860206890F8580001280DD0BD
:1038E0002068416D21EA0801416501252168002019
:1038F00081F8580002F0FEF928463BE40025F5E780
:103900002DE9F0411F4690460D4604004FF0010698
:1039100007D141F2FD02AFF68831AFF66C3002F00C
:10392000CBFE02F0CDF90FB1606D386094F858000D
:10393000022184F85810B8F1050F0ED2DFE808F024
:103940000D03060C0A00616D294301E0616D491CFD
:10395000616502E0022803D06565012802D02AE0F3
:10396000002628E0201DFEF79BFA244DE06A012185
:103970002A69814011432961214900EB800001EB54
:103980008000211DFEF768FAA06A38B141F23512B5
:10399000AFF60441AFF6E83002F08EFEE06A296827
:1039A000C96A884207D91B494FF080500860BFF3AD
:1039B0004F8FBFF36F8F02F09DF9304688E52DE9F8
:1039C000F0471F46DDF8209092460D4604004FF068
:1039D000010807D141F26812AFF64C41AFF6304012
:1039E00002F06AFE02F0ABF95020EFF3118680F38B
:1039F0001188BFF34F8FBFF36F8F0DE010000020D1
:103A000034010020092563092575092575092575E7
:103A10000D0A000004ED00E00FB1606D386094F80D
:103A20005800022184F85810BAF1050F0ED2DFE8D1
:103A30000AF00D03060C0A00616D294301E0616D77
:103A4000491C616502E0022803D06565012803D0A6
:103A500031E04FF000082EE0A06A38B141F2AF1219
:103A6000AFF6D441AFF6B84002F026FE8D4D286B7C
:103A7000012778B104F118018B48FEF7EDF9E06AEF
:103A80002968C96A884216D9B9F1000F12D0C9F85D
:103A9000007010E0201DFEF703FAE06A2A6907FAB9
:103AA00000F11143296100EB8001804800EB8100A7
:103AB000211DE2E7EF6186F31188404611E42DE90C
:103AC000F0418846040007D141F2E312AFF64051BD
:103AD000AFF6245002F0F0FD02F031F95020EFF380
:103AE000118780F31188BFF34F8FBFF36F8F94F866
:103AF0005800022184F85810616D491C6165012845
:103B00002ED1A06A38B141F20922AFF67C51AFF64E
:103B1000605002F0D1FD634D286B012678B104F1AD
:103B200018016148FEF798F9E06A2968C96A884275
:103B300016D9B8F1000F12D0C8F8006010E0201DAF
:103B4000FEF7AEF9E06A2A6906FA00F1114329612D
:103B5000564900EB800001EB8000211DE2E7EE6199
:103B600087F31188B4E410B558B1044602F0A8F800
:103B700094F85800022807D0002402F0BBF8204631
:103B800010BD48480468F1E7002084F8580001247B
:103B9000F3E72DE9F0470E46DDE909841746824632
:103BA00091009946089DA522206B02F041FA6FF022
:103BB0000301206B01EB8701084420F00707780719
:103BC00005D040F22B323AA141A002F075FD002051
:103BD0002218315C82F83410315C11B1401C10287D
:103BE000F6D3002684F84360202D00D31F25E5621C
:103BF000C4E91356201DFEF72CF904F11800FEF756
:103C000028F92461C5F120006462A061666584F82A
:103C100058604A465146384601F0C4FF2060B8F16A
:103C2000000F01D0C8F8004048E71E48416B096802
:103C300029B1416BC968C9684968816270474FF012
:103C4000FF31FAE710B50446006B02F05EF920463A
:103C5000BDE8104002F059B970B5134E114D14363D
:103C60001CE0FFF74EF8306820B10024FEF7BBFFE0
:103C7000A4B901E00124F9E702F022F8F068C46871
:103C8000201DFEF70DF9A868401EA8606868401E58
:103C9000686002F02FF82046FFF7D4FF686800281C
:103CA000DFD170BD10000020DC03002034010020B3
:103CB0002E2E5C4D6964646C6577617265735C4639
:103CC00072656552544F535C7461736B732E63005D
:103CD0004572726F723A25732C25640D0A0000003C
:103CE00070B500244160F74D0061914206D8D11AA9
:103CF0008269914206D2011D286907E09A4203D2E7
:103D0000994201D3012403E0011DE868FEF7B0F8F1
:103D1000204670BD2DE9FF479946DDF830A090465A
:103D20000D4606004FF0000705D14FF4D372E6A10F
:103D3000EEA002F0C1FCE34C206880B1CDE9005850
:103D40000296062D11DAFFF769FC02284FF00003F6
:103D500009D0002269462068FEF7C4F9074604B07E
:103D60003846BDE8F0875246F4E700234A466946E4
:103D7000FEF7B6FBF2E770B586B0D24E54E001987C
:103D8000002806DADDE90301029A9047019800282D
:103D90004ADB039C606910B1201DFEF781F805A87D
:103DA00000F04EF9054601980A283DD2DFE800F000
:103DB0000505053C283905053C280298A1690346FC
:103DC00001442A462046FFF78BFF00282CD0616A69
:103DD00020468847E069012826D1002000900298FB
:103DE000A1690023421819462046FFF793FF0028D7
:103DF0001AD140F22132B4A1BCA002F05DFC13E064
:103E00000298A06128B94FF44E72AFA1B7A002F09A
:103E100053FCA0692B4641191A462046FFF760FF64
:103E200002E0204602F071F800231A4601A930682A
:103E3000FEF763FA0028A2D106B070BDA14CE0687D
:103E4000016839B1002139B1002000F00BF9FFF70A
:103E500092FFF4E70121F6E7C0680068F5E710B5C6
:103E600001F02EFF974C2068A0B9A448FDF7E6FFAB
:103E7000A2481430FDF7E2FFA048E0601430206152
:103E8000002210210520FEF75DF8206010B19CA1F2
:103E9000FEF7E7FCBDE8104001F02CBF1CB5002484
:103EA000FFF7DDFF8748006868B186491F20091DBC
:103EB000CDE9000100234FF4827293A19448FEF7EC
:103EC000BDFD040005D140F233127FA187A002F0AE
:103ED000F3FB20461CBD2DE9F047074699461646E0
:103EE0000D462C20DDF820A001F0A4FF040014D022
:103EF000B8464F46D1462DB94FF4C67285A18EA063
:103F000002F0DAFBFFF7ABFF04F11801C4F8008000
:103F100081E8E002201DFDF79CFF204621E710B557
:103F2000684C606828B94FF4E87267A16FA002F08E
:103F3000C3FB606810BD10B5040005D140F2D91272
:103F400061A16AA002F0B8FBA06910BD10B5040021
:103F500005D140F2E3125CA164A002F0ADFB606801
:103F600010BD10B5040005D140F2ED1256A15FA0BE
:103F700002F0A2FB206810BD10B5040005D140F28C
:103F8000DA3251A159A002F097FB01F099FE606965
:103F900008B1012400E0002401F0ACFE204610BD71
:103FA00010B5040005D140F2EF3247A14FA002F056
:103FB00083FB01F085FE246A01F09CFE204610BDC3
:103FC00070B50D46040005D140F2FF323EA147A076
:103FD00002F072FB01F074FE2562BDE8704001F052
:103FE00089BE7FB56FF0010401AE009486E807003A
:103FF00034481D4600232A4669460068FEF770FAD9
:1040000004B070BD2DE9FF412E4C0746984620684C
:1040100015460E4628B940F22B422BA133A002F0E0
:104020004BFB4FF0FF30CDE90007CDE902650023DF
:10403000424669462068FEF755F804B0BDE8F081B5
:1040400070B50546FFF7F3F81E4E0446B06884428B
:1040500003D200F07DF8012000E000202860204617
:10406000B46070BDF8B50D460646FEF74AFE6846D8
:10407000FFF7E6FF0446009810B1FEF7B4FDF8BD67
:104080001048ADB101690968D9B10025311B2A4634
:104090000068FEF707FCFEF7A6FD0028EFD12A49CD
:1040A0004FF080500860BFF34F8FBFF36F8FF8BDA4
:1040B000A642EBD8FEF797FD2146304600F07BF88C
:1040C000F8BD43E04C0000202E2E5C4D6964646C0A
:1040D0006577617265735C4672656552544F535CD7
:1040E00074696D6572732E63000000004572726F13
:1040F000723A25732C25640D0A0000001804002074
:10410000546D725100000000546D722053766300AC
:104110003D3E00082E2E5C4D6964646C65776172CB
:1041200065735C4672656552544F535C74696D6586
:1041300072732E63000000004572726F723A25732D
:104140002C25640D0A00000004ED00E001259DE728
:10415000F8B52F4E27E0C068C4680568201DFDF73C
:104160009FFE616A20468847E06901281BD1A0694B
:104170002844A84206D924616060211DF068FDF73B
:1041800077FE10E000200346014600902A462046B4
:10419000FFF7C0FD38B940F29232AFF28801AFF2BA
:1041A000680002F089FAF06801680029D3D131690A
:1041B000C6E90310F8BDF8B5054615480E46C068B7
:1041C000C068C468201DFDF76BFEE069012818D1A6
:1041D000A0692B46411932462046FFF781FD80B188
:1041E00000200346014600902A462046FFF792FD34
:1041F00038B94FF40272AFF2E401AFF2C40002F03A
:104200005BFA616A01B02046BDE8F0400847000053
:104210004C0000201CB54FF44070FCF72DF8A8208E
:1042200001F056FC01F0D2F872B6C82001F080FC13
:1042300062B607490120CDE900010023802205A1D3
:104240000748FEF7FBFBFEF7A5FF00201CBD0000A2
:104250008800002073746172745F7461736B000076
:10426000F952000870474FF47A740BA000F046F939
:10427000204601F05DFCF8E7FEE7FEE7FEE7704749
:1042800001F0E3BA00F047B9704700F061BA704737
:1042900000F063BB01F02EBB68617264206661753B
:1042A0006C742E2E2E0D0A000CB50022544900927B
:1042B0000192086840F4803008604FF4A043086819
:1042C00000F4003001900098401C0090019810B953
:1042D00000989842F3D10868800334D501200190FA
:1042E00047484030026842F0805202604548026808
:1042F00042F44042026042480830026802600268AC
:1043000042F400420260026842F4A0520260031FBD
:104310003D4A1A600A6842F080720A600A68920197
:10432000FCD53A4940F205720A60016821F00301A8
:104330000160016841F0020101600168C1F381017F
:104340000229FAD10CBD01920CBD314810B50168AB
:1043500041F4700101602A48016841F001010160E7
:10436000274A00210832116002682A4B1A40026075
:10437000031D294A1A60026822F480220260204844
:104380000C300160FFF790FF21494FF00060803949
:10439000086010BD70B51A4D083528681F4B2049BC
:1043A00010F00C0004D05E10042803D0082803D0BD
:1043B0000B601BE00E6019E0114A121D1068C0F37B
:1043C0008054106800F03F0014B1B6FBF0F001E03B
:1043D000B3FBF0F013681268C3F388135843C2F3B9
:1043E0000142521C5200B0FBF2F0086028680C4AEF
:1043F000C0F30310121D105C0A68C2400A6070BD51
:10440000003802400070004008544007003C024061
:1044100088ED00E0FFFFF6FE103000240024F400D9
:10442000600000202DE9F043814687B0FE4F012156
:104430000820FCF792FD01218804FCF7ACFDDFF8B1
:10444000EC83072208214046FCF7F8FB07220921EC
:104450004046FCF7F3FB02258DF814504FF44070F2
:104460008DF81550002404908DF8164001268DF823
:10447000176004A94046FCF76DFBADF808400C201E
:10448000ADF80440ADF80A00CDF80090ADF8064054
:10449000ADF80C4069463846FDF769FB40213846C7
:1044A000FDF794FC012240F225513846FDF76FFCE0
:1044B00001213846FDF7CCFB27208DF818008DF838
:1044C00019508DF81B6006A8FBF7DBFE07B0BDE8AE
:1044D000F08370B50C460546D34E0CE08021304683
:1044E000FDF76DFC0028F9D015F8011B3046FDF7EB
:1044F000D5FB641EE4B2002CF0D170BD10B5CA49E2
:104500000C1D04E00B885B06FCD52280401C027861
:10451000002AF7D110BD2DE9F041C34E40F22557D6
:1045200039463046FDF755FCC14C0125A0B139464E
:104530003046FDF74BFC301D00880022C1B2201D23
:104540000D2917D00A2919D0B4F8CE201154B4F887
:10455000CE00401CA4F8CE0040F224413046FDF7C6
:1045600038FC002804D0B3480188808884F8D150F2
:10457000BDE8F081B4F8CE100A5401E084F8D050C0
:10458000A4F8CE20E8E770B5A94D3226A8B0287966
:1045900041283ED1687954283BD1281D01F078FD8F
:1045A000C4B23146684601F04AFD31461AA801F00E
:1045B00046FD31460DA801F042FD0722291D68463F
:1045C00001F05AFD9CA1684601F069FD9C4D10B3B5
:1045D0009CA1684601F063FD00281AD131460DA860
:1045E00001F02DFD9249E21F0B310DA801F044FDB1
:1045F00027AA96A10DA801F079FD27982978C0B2C5
:1046000088420FD0287092A0FFF778FF94490020CD
:10461000087028B070BD2A7892A11AA802F05CF840
:104620001AA800E094A0FFF769FFF2E7F0B506468C
:10463000012187B0954D0846FCF78FFC0121C80485
:10464000FCF7A9FC7A49924828390024086000F553
:10465000FA5048604FF4FA5088818E4F8C730822CC
:1046600021463846FCF7EAFA082201213846FCF7D1
:10467000E5FA0320049002208DF814008DF815004F
:104680008DF8164001208DF8170004A93846FCF774
:1046900061FAADF808400420ADF80440ADF80A0016
:1046A0000096ADF80640ADF80C4069462846FDF787
:1046B0005EFA01212846FDF7CBFA40212846FDF796
:1046C00085FB07B0F0BD30B5012191B04805FCF77E
:1046D00044FC0D208DF83C0001248DF83D40032062
:1046E0008DF83E008DF83F400FA8FBF7CAFD6A4DDC
:1046F0002846FBF7C3FFE006009064484C4A001DC3
:10470000283A019000211068CDE902019089CDE995
:104710000401A002CDE90601C0010891CDE909100C
:10472000CDE90B140D910E9169462846FCF72EF841
:10473000012210212846FCF7D7F8012240215348D6
:10474000FDF71DFB01212846FCF759F811B030BDDB
:1047500070B5514D51492846FCF7DCF800282BD0A4
:1047600000212846FCF74BF84FF081512846FCF712
:10477000AAF82F4C283C0126A07B88B10020A0730A
:10478000A1892846FCF759F8002228462168FCF741
:104790006EF826742846BDE870400121FCF72FB85A
:1047A000A673A1892846FCF748F8002228466168CC
:1047B000FCF75DF8E673EDE770BDF0B506461C4802
:1047C00087B0D430A0F1E8010024086000F5FA5069
:1047D00048604FF4FA5088818C73314D01210420D8
:1047E000FCF7BBFB01212020FCF7DFFB2D4F08224B
:1047F00006213846FCF722FA082207213846FCF742
:104800001DFAC020049002208DF814008DF81500C8
:104810008DF8164001208DF8170004A93846FCF7E2
:1048200099F9009640E0000000480040000C02406A
:10483000680400200010014041542B5345523F00B2
:104840007B00002041542B5345523D00256400005D
:104850002B736572206368616E676564200D0A00C2
:10486000840000202B7365727665725F69643A2557
:104870003032643B0D0A00002B736572206E6F208E
:104880006368616E676564200D0A0000004C00409B
:10489000BC43002000000240406002400080201025
:1048A0000014014000080240ADF808400420ADF8B3
:1048B0000440ADF80A00ADF80640ADF80C4069467A
:1048C0002846FDF754F901212846FDF7C1F940219A
:1048D0002846FDF77BFAF4E630B5012191B0880552
:1048E000FCF73BFB39208DF83C0002208DF83D00A1
:1048F00001248DF83F400FA8FBF7C3FC534D284619
:10490000FBF7BCFEA8050090524A514801900021D7
:104910001068CDE902019089CDE90401A002CDE93A
:104920000601C0010891CDE90910CDE90B140D91E4
:104930000E9169462846FBF729FF012210212846DF
:10494000FBF7D2FF424801224021001FFDF717FA72
:1049500001212846FBF753FFF8E670B53B4D3E4971
:104960002846FBF7D7FF002829D000212846FBF76F
:1049700046FF3A492846FBF7A6FF364C0126A07BA6
:1049800088B10020A073A1892846FBF756FF0022BA
:1049900028462168FBF76BFF26742846BDE8704067
:1049A0000121FBF72CBFA673A1892846FBF745FF21
:1049B000002228466168FBF75AFFE673EDE770BDF9
:1049C00027A09BE54FF4E1342046FFF72BFD20465E
:1049D000FFF72CFE2046FFF7F0FEFFF774FEFFF70F
:1049E0007BFF20A0FFF78AFDDFF86880DFF8889062
:1049F00008F11408DFF884A0DFF884B00024154F14
:104A0000A8F12805012698F8D0104046012903D1C5
:104A100080F8D040FFF7B7FDE87B012802D1EC73A6
:104A200089F80060287C012802D12C748AF8006083
:104A3000F87B012802D1FC738BF80060387C0128D8
:104A4000E1D110483C740670DDE7000028640240A4
:104A500004140140540400200088001000080010D5
:104A6000414100007573617274207461736B207230
:104A7000756E2E2E2E0D0A00760000207700002085
:104A8000740000207500002010B5FCA001F014FE99
:104A9000BDE810404FF4FA7001F04AB810B5FCA020
:104AA00001F00AFEBDE810404FF47A7001F040B802
:104AB00070B50D4606460C88FFF720FD0022104613
:104AC00002E0B054521C92B2A242FAD3288070BDC8
:104AD0002DE9F05FEFA001F0EFFDF0A0FFF70EFD74
:104AE0004FF4FA76304601F023F8EE4D09E0A91DA7
:104AF0002868FFF7DDFFE7A001F0DEFD304601F09A
:104B000017F8E9A1286801F0A5FA0028EFD0E7A07E
:104B100001F0D2FDE7A0FFF7F1FC304601F008F804
:104B2000A91D2868FFF7C4FFE5A001F0C5FDE7A0B7
:104B3000FFF7E4FC304600F0FBFFA91D2868FFF7F3
:104B4000B7FFE6A001F0B8FD304600F0F1FFE6A0A7
:104B500001F0B2FD304600F0EBFF03E0A91D28682C
:104B6000FFF7A6FFE2A001F0A7FD304600F0E0FF4E
:104B7000E2A1286801F06EFA0028EFD0A91D28688C
:104B8000FFF796FFE1A001F097FD304600F0D0FF5F
:104B9000E1A1286801F05EFA0746E2A1286801F069
:104BA00059FA0743EAD0A91D2868FFF781FFE0A062
:104BB00001F082FD304600F0BBFFE0A1286801F063
:104BC00049FA0746E0A1286801F044FA0743EAD011
:104BD000A91D2868FFF76CFFDEA001F06DFD3046CF
:104BE00000F0A6FFA91D2868FFF762FFDCA001F016
:104BF00063FDDBA0FFF782FC304600F099FFA91DA2
:104C00002868FFF755FFDAA001F056FD4FF47A77D8
:104C1000384600E0304600F08BFFA3A1286801F081
:104C200019FA0028F6D0A91D2868FFF741FFD8A07F
:104C300001F042FDD6A0FFF761FC304600F078FF9E
:104C400099A1286801F006FA0028F6D0A91D286865
:104C5000FFF72EFFD2A001F02FFDD1A0FFF74EFCF1
:104C6000304600F065FF90A1286801F0F3F90028B4
:104C7000F6D0A91D2868FFF71BFFCDA001F01CFD91
:104C8000CBA0FFF73BFC304600F052FFA91D28687F
:104C9000FFF70EFFDFF824930021BB4689F80010D0
:104CA000A9F1100A4FF49678ADA001F005FDACA073
:104CB000FFF724FC584600F03BFFA91D2868FFF7CA
:104CC000F7FE9AF8070020B1012804D0022805D089
:104CD00006E0BB4C04E0BA4C303401E0B84C603420
:104CE000204601F0E9FC2046FFF708FCB5A1286842
:104CF00001F0B0F90746002609E0B2A1286801F0EA
:104D0000A9F90746642000F013FF761CB6B20FB96C
:104D10004645F2D3A91D2868FFF7CAFE464504D2CE
:104D2000012189F80010BDE8F09F99F800000128E2
:104D3000BAD1F8E72DE9F047FFF7B0FE4FF4FA706B
:104D400000F0F6FEDFF874A2564EAAF1100A4FF4F6
:104D50009678DFF8689240E081A001F0ADFC80A079
:104D6000FFF7CCFB4FF4FA6000F0E2FEB11D3068B3
:104D7000FFF79EFE9AF8070020B1012804D0022810
:104D800005D006E08E4D04E08D4D303501E08C4DB0
:104D90006035284601F090FC2846FFF7AFFB89A15B
:104DA000306801F057F90746002409E085A1306812
:104DB00001F050F90746642000F0BAFE641CA4B26A
:104DC0000FB94445F2D3B11D3068FFF771FE444579
:104DD00003D2012189F8001003E099F800000128AE
:104DE000BAD1BDE8F0474FE630B58DB00446342166
:104DF000684601F024F977A001F05EFC142000F071
:104E000097FE204601F058FC142000F091FE754CEE
:104E10001A212046FCF742FF40212046FCF7CFFF35
:104E20000028F9D0142000F083FE1E4D6EA12868E2
:104E300001F010F9044607E06BA1286801F00AF9B7
:104E40000446022000F074FE002CF5D0022000F091
:104E50006FFEA91D2868FFF72BFE65A001F02CFC52
:104E6000022000F065FE66A1286801F0F3F8A91D94
:104E70002868FFF71DFE0DB030BD000041542B51D6
:104E8000495357544D443D302C320D0A0000000068
:104E90002B2B2B0041540D0A0000000041542E2EF4
:104EA0002E0D0A009C0000204F4B0000415445305D
:104EB0000D0A0000415445302E2E2E0D0A00000030
:104EC00041542B4950523F0D0A00000041542B49D8
:104ED00050523F2E2E2E0D0A0000000041542B434D
:104EE00053510D0A000000004154490D0A00000012
:104EF00041542B4350494E3F0D0A00002B4350496B
:104F00004E3A2052454144590000000041542B4381
:104F10005245473F0D0A00002B435245473A203087
:104F20002C3100002B435245473A20302C350000ED
:104F300041542B43475245473F0D0A002B434752EC
:104F400045473A20302C31002B43475245473A2001
:104F5000302C350041542B434F50533F0D0A000075
:104F600041542B5149434C4F53453D300D0A0000ED
:104F700041542B5149435347503D312C312C22434E
:104F80004D4E4554222C22222C22222C300D0A0078
:104F900041542B514944454143543D310D0A0000D1
:104FA00041542B51494143543D310D0A000000004A
:104FB00041542B51494143543F0D0A0084000020C5
:104FC0006C6A00082B51494F50454E3A20302C3026
:104FD0000000000041542B514953454E443D300DD3
:104FE0000A0000000010014053454E44204F4B0082
:104FF00041542B514953454E443D302C300D0A004D
:105000002B514953454E443A0000000070B5954D70
:105010000022954C6A811FE0835C0A26B6EB131FC1
:105020004FEA131301D9303300E037332688760670
:10503000FCD5A380835C03F00F030A2B01D230332D
:1050400000E0373326887606FCD5A380835C6E8922
:10505000521C33446B8192B28A42DDD370BD10B5CD
:1050600001F02AFBBDE81040022000F061BD7F493D
:1050700010B5EB230B7090234B70AC238B700F2378
:10508000CB701A2300220B714A7188710420C871F9
:1050900077A0134604688C604468CC60806808611F
:1050A000704800890875000A48750120887502203B
:1050B000C8750B764B768B76CB7604200B5C401C48
:1050C0001A44C0B292B21C28F8D301F81C2F100A5F
:1050D0004870EA2088708F20C870AA2008710D20BF
:1050E000487110BD6149EB233C3100220B709023C5
:1050F0004B70AC238B700F23CB7009230B714A715B
:1051000088710420C871574800890872000A4872E3
:105110000220887204200B5C401C1A44C0B292B278
:105120000B28F8D3CA72100A0873EA2048738F203C
:105130008873AA20C8730D2008747047F0B517460D
:10514000024689B003F110001E468DF80400EB23DF
:10515000000A8DF800308DF8050090238DF801309D
:105160008DF806200420AC238DF807008DF802305E
:105170003C480F238DF8033000898DF80800000AA1
:105180008DF8090003208DF80A00002003908DF8A7
:105190001060300A00248DF80B108DF811000420E7
:1051A00069460A5C401C224480B294B21228F8D3AB
:1051B0001221684600F03BFB002504E0785D6D1C81
:1051C000204484B2ADB2B542F8D33146384600F03F
:1051D0002EFB8DF80040200A8DF80100EA208DF8A2
:1051E00002008F208DF80300AA208DF804000D2006
:1051F0008DF805000621684600F019FB09B0F0BDE6
:105200001F49012048831749002010314FF4E13431
:105210000870204600F04EFA2046FFF703F94FF4DD
:105220007A74204600F084FC204600F081FC15A032
:10523000FFF764F918A0FFF761F91BA001F03CFA31
:105240001CA001F039FA07491FA00C3100F03EFF05
:105250000448C1681DA001F02FFA20A001F02CFA2B
:10526000FEE7000074000020001001404884002088
:1052700054454348582D45532D303031000000002F
:105280000010024065633230207461736B207275C8
:105290006E2E2E2E0D0A00006563323020535441CD
:1052A00052542E2E2E0D0A0049544D2074657374ED
:1052B0000D0A0000696E7075742076616C7565204A
:1052C0002E2E2E0D0A0000002564000076616C75FC
:1052D00065203D2025640D0A0000000049544D2042
:1052E0007465737420454E440D0A000000F0A9BB9C
:1052F000FFF768BBFFF784BF1CB500F0E1FC154861
:105300000224CDE900400023E20113A1AFF21B000B
:10531000FDF794FB0F480023001DCDE900408022DB
:1053200010A1AFF23300FDF789FB0A4800230830D3
:10533000CDE90040802210A1AFF24F00FDF77EFBC7
:105340000448001F0068FDF7A4FBBDE81C4000F006
:10535000D1BC00008C000020656332305F74617343
:105360006B0000005472616E73706172656E745FE1
:105370007461736B0000000049646C655F74617355
:105380006B00000010B5844C10212046FBF749FC4F
:105390002046BDE810402021FBF741BC10B57E4CF3
:1053A00020212046FBF73DFC2046BDE8104010219F
:1053B000FBF735BC10B5784C20212046FBF72FFCBD
:1053C0002046BDE810401021FBF729BC2DE9FC4127
:1053D00001211820FBF7C1FD01248DF804400025B0
:1053E0008DF80650DFF8B4814FF480678DF80740E0
:1053F000032600978DF8056069464046FBF7AAFB37
:1054000039464046FBF70BFC8DF8044008208DF828
:10541000065000908DF805608DF8074069464046BB
:10542000FBF798FB08214046FBF7F9FB8DF8044099
:1054300030208DF80650584F00908DF807408DF8B9
:10544000056069463846FBF785FB8DF804408DF80A
:1054500006508DF8074000948DF80560694638467F
:10546000FBF778FB01213846FBF7D9FBFFF78AFFF2
:1054700001211420FBF771FD8DF804404FF46040CA
:105480008DF8065000908DF807408DF8056069464C
:105490004348FBF75FFB8DF8044040208DF8065031
:1054A00000908DF807408DF8056069463846FBF797
:1054B00051FBBDE8FC817FB50820009002208DF8EB
:1054C000050000258DF8045001248DF80740694639
:1054D0003248FBF73FFB01210820FBF766FD012066
:1054E000FBF7C3FA8DF80C500C208DF80D000294D8
:1054F0008DF80E4002A8FBF75FFA7FBD2DE9F05F43
:10550000274C4FF40046183471104A104023224FA4
:10551000A51C062808D2DFE800F00317090B0F12BC
:105520002680218022803B83BDE8F09F2E8000E012
:10553000268029802A8005E026802180FAE72680BF
:10554000218022807B83EFE72E808A462980904647
:105550002A8099467B834FF4967B584600F0E8FA00
:105560002680A4F800A0A4F80080A7F81890584658
:1055700000F0DEFA2E80A5F800A0A5F80080A7F8BC
:105580001A90584600F0D4FA2680A4F800A0A4F897
:105590000080A7F81890C7E700100240000C0240F6
:1055A000000802400A220109B2EB101F01D9303174
:1055B00000E037314FF6FF7200F00F0002EA0121E0
:1055C0000A2801D2303000E0373008437047F0B588
:1055D0005E26262700230E704F7002241AE0C55C59
:1055E0004FF00A0CBCEB151F4FEA151501D93035E9
:1055F00000E037350D55641CE5B2C45C04F00F04BF
:105600000A2C01D2303400E037344C556D1C5B1C41
:10561000ECB2DBB29342E2D30F55641CE0B20E54FD
:10562000401CC0B200220A54F0BD70B500242346CD
:1056300019E0C55C0A26B6EB151F4FEA151501D90E
:10564000303500E037350D55C55C641C05F00F059D
:10565000E4B20A2D01D2303500E037350D55641C17
:105660005B1CE4B2DBB29342E3D30020085570BD6B
:10567000704782490968C9070AD08049803909689A
:10568000C90705D04FF060410A68002AFCD00870B5
:1056900070477B497B4A0868904201D100BFFAE716
:1056A0000B684FF0FF30934201D008680A607047E2
:1056B000002070472DE9F0418046012188B008465E
:1056C000FBF74BFC01211020FBF76FFC6E4F07220C
:1056D0000A213846FBF7B2FA072209213846FBF7C0
:1056E000ADFA02258DF814504FF4C0608DF81550B6
:1056F000002404908DF8164001268DF8176004A947
:105700003846FBF727FAADF80440ADF80640ADF88F
:105710000840ADF80C400C205C4CADF80A00CDF808
:10572000008069462046FCF722FA01212046FCF75A
:105730008FFA40212046FCF749FB012240F2255117
:105740002046FCF724FB25208DF818008DF8195011
:105750008DF81B6006A8FAF794FD49484C49001DD6
:105760000160A115818008B0BDE8F0817FB5474D8B
:10577000044600212846FCF76BFA0020ADF804002F
:10578000ADF80600ADF80800ADF80C000C20ADF83F
:105790000A00009469462846FCF7E9F901212846E9
:1057A000FCF756FA7FBD30B5012191B08805FBF7B3
:1057B000D4FB384D2846FAF761FF4FF000600090A7
:1057C00032480021001D0190334802904020039090
:1057D000C000CDE904014000CDE906018001089137
:1057E000CDE909100124CDE90B140D910E91694604
:1057F0002846FAF7CBFF012210212846FBF774F860
:10580000012280212148FCF7BAFA46208DF83C009D
:105810008DF83D408DF83E408DF83F400FA8FAF7D7
:1058200030FD00212846FAF7EAFF11B030BD10B56F
:105830000022164B06E01C886406FCD5845C9C8024
:10584000521C92B28A42F6D310BD10B50F4C40F2F2
:1058500025512046FCF7BDFA00280DD0A088084944
:10586000091DCB880A68D054C888401C80B2C88003
:10587000FF2801D90020C88010BD0000800E00E084
:1058800098000020A55AA55A0000024000100140CF
:10589000C0840020B8640240408200207FB50D46DD
:1058A000044601210220FBF776FB0194ADF800507D
:1058B0000024224DADF80240ADF808406946284664
:1058C000FBF7B0FC012211462846FCF734F8012111
:1058D0002846FBF71FFD1D208DF80C0004208DF8D5
:1058E0000D008DF80E4001208DF80F0003A8FAF787
:1058F000C8FC7FBD10B5114C01212046FCF72FF8E4
:10590000012814D10E4801220168491C0160001DC4
:1059100003688B4200D102710A4803688B4200D1B0
:10592000027107480C3003688B4200D10271204697
:10593000BDE810400121FCF71EB800000004004043
:10594000A8000020C000002010B501218CB008463E
:10595000FBF72BFB08200A9003208DF82C000AA9E6
:105960004D48FBF7F7F801210802FBF71EFBFAF799
:10597000DBFC00244FF4A060CDE9084006940794B6
:1059800006A8FAF708FD8DF80440009403948DF8FA
:1059900005400494414C69462046FAF7D1FC0120A9
:1059A000FAF729FD0623012203212046FAF73DFDDF
:1059B00001212046FAF706FD0CB010BD10B5374C9A
:1059C0002046FAF76CFD02212046FAF730FE002847
:1059D000F9D02046BDE81040FAF793BD70B5002518
:1059E00006462C4605E0FFF7E9FF2844641C85B213
:1059F000E4B2B442F7D3B5FBF6F070BD10B5102099
:105A0000FFF7ECFF4BF680314843000C00EB8000C1
:105A100080B210BD0321B0FBF1F040F6F661884280
:105A200001D902200BE040F67461884201D90320BD
:105A300005E0B0F5616F01D9042000E00520FFF713
:105A40005DBDFFF781FF42F2CF0140F2E730FFF783
:105A500025FF134D134C286800F596602060012047
:105A60002071FFF74BFD10A0FEF748FD0027261F11
:105A70004FF4FA782079012809D12771286800F5B8
:105A800096602060FFF7BAFF3080FFF7C3FF404603
:105A9000FDF79CF9EEE70000000002400020014005
:105AA000A8000020C000002069646C652074617348
:105AB0006B2072756E2E2E2E0D0A000010B5FDF7AC
:105AC000ADFD012803D0BDE8104000F024B910BDA1
:105AD00010B504460420FAF715FC28484CF2503162
